:100000000C9406110C942E110C942E110C942E119C
:100010000C942E110C942E110C942E110C948D26F0
:100020000C942E110C942E110C942E110C948B27E1
:100030000C942E110C942E110C942E110C942E1144
:100040000C9441270C942E110C940F270C94E92644
:100050000C942E110C942E110C942E110C942E1124
:100060000C9447280C942E11416C61726D205469D8
:100070006D653A0043757272656E742054696D65E2
:100080003A00740068000000000000000000000E4C
:100090000000000000000000000000000000000E52
:1000A00000000000000000FC000000000000200E26
:1000B00000000000000003FF000000000000700EC0
:1000C00000000000000007FF000003800000F00EA9
:1000D0000000000000000F07000003800001F00E88
:1000E0000000000000001C00000003800001F00E72
:1000F0000000000000001C00000003800003B80E98
:100100000000000000001E0001F83FF80003B80ED8
:1001100003E073C38E3C1FF803FC3FF80007380E62
:100120000FF877E39FFE0FFE07FE1FF80007380E5B
:100130001FFC7CE3BFFE03FF0F0E0380000E180EB2
:100140003E3878E3FBCE001F0E1E0380000EFC0E2F
:10015000383870E3E38E00079C7C0380001FFC0EA0
:10016000783870E3C38E00039DF00380003FFC0EDF
:1001700070387003838E00039FC00380003F1C0E05
:1001800070387003838F60039E00038000380E0E6A
:1001900070387003838F70071C03038000700E0E8D
:1001A000703870038387781F1F07038000700E0E5E
:1001B0007878700383873FFE0FFF038000E00F0E07
:1001C0003FFC700383871FFC07FE038000E0070EDF
:1001D0001FFC7003838707E001F8038000C0070E4F
:1001E0000F8C7003838700000000000000000000F7
:1001F00000000000000000000000000000000000FF
:1002000000000000000000000000000000000000EE
:1002100000000000000000000000000000000000DE
:1002200000000000000000000000000000000000CE
:1002300000000000000000000000000001800080BD
:10024000000000000000000000000000038000E04B
:100250000000000000000000000000000F8001F816
:100260000000000000000000000000001F8000FCF3
:100270000000000000000000000000003E00003E02
:10028000000000000000000000000000780FF81FD0
:10029000000000000000000000000000F07FFF0FE1
:1002A000800000000000000000000001E1FFFF8767
:1002B000800000000000000000000001C3F80FE310
:1002C000C00000000000000000000003C7C003F1F0
:1002D000E000000000000000000000038F8180F8B3
:1002E000E000000000000000000000001F01807816
:1002F0008000000000000000000000001E01803CA3
:100300000000000000000000000000003C01801E12
:100310000000000000000000000000003801801E06
:100320000000000000000000000000007801C00E86
:100330000000000000000000000000007001C00F7D
:100340000000000000000000000000007001C00775
:100350000000000000000000000000007001C00765
:100360000000000000000000000000007001C00755
:10037000000000000000000000000000F001C007C5
:10038000000000000000000000000000F001E00795
:100390000000000000000000000000007000F007F6
:1003A0000000000000000000000000007000700766
:1003B0000000000000000000000000007000380F86
:1003C00000000000000000000000000078001C0F8A
:1003D00000000000000000000000000038000E0EC9
:1003E0000000000000000000000000003C00071EAC
:1003F0000000000000000000000000001C00033CA2
:100400000000000000000000000000001E00007C52
:100410000000000000000000000000000F0000F8D5
:1004200000000000000000000000000007C001F014
:1004300000000000000000000000000003F007E0E2
:1004400000000000000000000000000001FFFFC0ED
:10045000000000000000000000000000007FFF001E
:10046000000000000000000000000000001FFC0071
:10047000000000000000000000000000000000007C
:10048000000000000000000000000000000000006C
:10049000000000000000000000000000000000005C
:1004A000000000000000000000000000000000004C
:1004B0000000000000000000060000000000000036
:1004C0000000000000000020060000000000003FC7
:1004D000FF80000000000070060000000000003FE8
:1004E000FF8C00000000007006000000000000000B
:1004F000C00C0000000000F006000000000000003A
:10050000C0000000000000F0060000000000000035
:10051000C0000000000001D806000000000000003C
:10052000C0000000000001D80603E33C339E000039
:10053000C00C339E03E00398060FF37E37FF0000E4
:10054000C00C37FF07F80788061E33E63EF30000AD
:10055000C00C3EF30E18070C061833863CC300008F
:10056000C00C3CC30C3807FC0638330638C3000007
:10057000C00C38C318F00FFC0630330030C3000045
:10058000C00C30C31BE01F060630330030C3000030
:10059000C00C30C31F001C060630330030C30000FF
:1005A000C00C30C31C001C060630330030C30000F2
:1005B000C00C30C3180C38070618730030C3000095
:1005C000C00C30C30E1C3803061FFB0030C30000F4
:1005D000C00C30C30FF83003060F9B0030C300007F
:1005E000C00C30C303E00000000000000000000069
:1005F00000000000000000000000000000000000FB
:1006000000000000000000000000000000000000EA
:1006100000000000000000000000000000000000DA
:1006200000000000000000000000000000000000CA
:1006300000000000000000000000000000000000BA
:1006400000000000000000000000000000000000AA
:10065000000000000000000000000000000000009A
:10066000000000000000000000000000000000008A
:10067000000000000000000000000000000000007A
:10068000000000000000000000000000000000006A
:10069000000000000000000000000000000000005A
:1006A000000000000000000000000000000000004A
:1006B0000000000000000000000000001F8000009B
:1006C0000000000000000000000000007FC00000EB
:1006D000000000000000000000000000E000000634
:1006E000000000000000000000000000C000000644
:1006F0000000000000000000000000018000000673
:100700000000000000000000000000018000000662
:10071000000000000000000000000001C000F87FA1
:10072000E00000000000000000000000FF01FE7F6C
:10073000E000000000000000000000007F8386064B
:1007400000000000000000000000000001C30E06D1
:1007500000000000000000000000000000E63C0671
:100760000000000000000000000000000066F80625
:100770000000000000000000000000000067C0064C
:1007800000000000000000000000000600670006F6
:1007900000000000000000000000000600C6030684
:1007A00000000000000000000000000783C387066F
:1007B000000000000000000000000003FF03FE0630
:1007C000000000000000000000000000FC00F8062F
:1007D0000000000000000000000000000000000019
:1007E0000000000000000000000000000000000009
:1007F00000000000000000000000000000000000F9
:1008000000000000000000000000000000000000E8
:1008100000000000000000000000000000000000D8
:1008200000000000000000000000000000000000C8
:1008300000000000000000000000000000000000B8
:1008400000000000000000000000000000000000A8
:100850000000000000000000000000000000000098
:100860000000000000000000000000000000000088
:100870000000000000000000000000000000000078
:1008800000000000000000000000003E5B4F5B3EE7
:100890003E6B4F6B3E1C3E7C3E1C183C7E3C181C45
:1008A000577D571C1C5E7F5E1C00183C1800FFE73C
:1008B000C3E7FF0018241800FFE7DBE7FF30483AE2
:1008C000060E2629792926407F050507407F052544
:1008D0003F5A3CE73C5A7F3E1C1C08081C1C3E7FCC
:1008E00014227F22145F5F005F5F06097F017F0093
:1008F0006689956A606060606094A2FFA2940804B3
:100900007E040810207E201008082A1C08081C2AD3
:1009100008081E101010100C1E0C1E0C30383E382B
:1009200030060E3E0E06000000000000005F0000D2
:100930000007000700147F147F14242A7F2A122343
:100940001308646236495620500008070300001C53
:100950002241000041221C002A1C7F1C2A08083E5C
:10096000080800807030000808080808000060606F
:100970000020100804023E5149453E00427F4000DD
:1009800072494949462141494D331814127F1027B5
:10099000454545393C4A4949314121110907364904
:1009A000494936464949291E0000140000004034D8
:1009B00000000008142241141414141400412214DD
:1009C0000802015909063E415D594E7C1211127C04
:1009D0007F494949363E414141227F4141413E7F65
:1009E000494949417F090909013E414151737F0845
:1009F00008087F00417F41002040413F017F0814EB
:100A000022417F404040407F021C027F7F0408104B
:100A10007F3E4141413E7F090909063E4151215E29
:100A20007F09192946264949493203017F01033FBD
:100A30004040403F1F2040201F3F4038403F63144C
:100A400008146303047804036159494D43007F414E
:100A500041410204081020004141417F040201028B
:100A600004404040404000030708002054547840B0
:100A70007F284444383844444428384444287F3844
:100A80005454541800087E090218A4A49C787F08C6
:100A900004047800447D40002040403D007F102841
:100AA000440000417F40007C047804787C08040402
:100AB000783844444438FC1824241818242418FC9A
:100AC0007C08040408485454542404043F44243C3F
:100AD0004040207C1C2040201C3C4030403C4428AE
:100AE0001028444C9090907C4464544C4400083648
:100AF00041000000770000004136080002010204B6
:100B0000023C2623263C1EA1A161123A4040207AD5
:100B1000385454555921555579412254547842211D
:100B20005554784020545579400C1E527212395554
:100B30005555593954545459395554545800004551
:100B40007C410002457D420001457C407D1211122E
:100B50007DF0282528F07C545545002054547C54C1
:100B60007C0A097F4932494949323A4444443A327D
:100B70004A4848303A4141217A3A42402078009D23
:100B8000A0A07D3D4242423D3D4040403D3C24FFCF
:100B90002424487E4943662B2FFC2F2BFF0929F67E
:100BA00020C0887E090320545479410000447D41CF
:100BB0003048484A32384040227A007A0A0A727D28
:100BC0000D19317D2629292F282629292926304843
:100BD0004D4020380808080808080808382F10C8B1
:100BE000ACBA2F102834FA00007B000008142A1435
:100BF0002222142A14085500550055AA55AA55AAB0
:100C0000FF55FF55FF000000FF00101010FF0014FB
:100C10001414FF001010FF00FF1010F010F0141457
:100C200014FC001414F700FF0000FF00FF1414F47C
:100C300004FC141417101F10101F101F1414141F7D
:100C400000101010F0000000001F101010101F10F6
:100C5000101010F010000000FF10101010101010F5
:100C60001010FF10000000FF140000FF00FF000044
:100C70001F10170000FC04F414141710171414F4B8
:100C800004F40000FF00F714141414141414F700F3
:100C9000F7141414171410101F101F141414F41444
:100CA0001010F010F000001F101F0000001F1400B3
:100CB0000000FC140000F010F01010FF10FF1414DE
:100CC00014FF141010101F00000000F010FFFFFFB1
:100CD000FFFFF0F0F0F0F0FFFFFF0000000000FF6A
:100CE000FF0F0F0F0F0F3844443844FC4A4A4A3470
:100CF0007E02020606027E027E0263554941633887
:100D000044443C04407E201E2006027E020299A537
:100D1000E7A5991C2A492A1C4C7201724C304A4D95
:100D20004D303048784830BC625A463D3E494949CA
:100D3000007E0101017E2A2A2A2A2A44445F444473
:100D400040514A444040444A51400000FF0103E002
:100D500080FF000008086B6B083612362436060F39
:100D6000090F06000018180000001010003040FFA6
:100D70000101001F01011E00191D1712003C3C3C1F
:100D80003C0000000000000103070F1F3F7F0080B0
:100D9000C0E0F0F8FCFE000000002300260029005F
:100DA000000000080002010000030407000000002A
:100DB0000000000000000000240027002A00DB40A3
:100DC000A4A62EAF2000A1C8D300408DAED580A828
:100DD0000000000000000000000000000000000013
:100DE00000000038000000000000000000000000CB
:100DF0000000003800000000070000600000000054
:100E00000000003800000000070000E000000000C3
:100E1000003F803800000000070000E000000000F4
:100E200000FFE03800000000070000E000000C00B8
:100E300003FFF03800000000070000E000000E0093
:100E400007C0F03800000000070000E000000E00BE
:100E50000E00003800000000070000E000000E0057
:100E60001C00003800000000070000E000000E0039
:100E70001C00003800000E00070000E000000E001B
:100E80001C00003801F81E3C070000E00FC1FFF015
:100E90001F00003807FE1EFF070000E03FF1FFF0D3
:100EA0000FFE00380FFF1FFF870000E07FF8FFE014
:100EB00007FFC0381F0E1FC787003FE0F8700E0005
:100EC00001FFE0383C0E1F03870FFFE1E0700E00CA
:100ED0000003F038380E0E01C7FFFFE1C0700E00AE
:100EE0000000F838780E0E01C7FFC0E3C0700E0096
:100EF00000007838700E0E01C7F000E380700E001D
:100F000000003838700E0E01C70000E380700E003C
:100F100000003838700E0E01C70000E380700E002C
:100F200070003838700E0E01C70000E380700E00AC
:100F300070007038700E0E01C70000E380700E0064
:100F40007800F038780F0E03C70000E3C0780E0079
:100F50007E03E0383C1F0E03870000E1E0F80E003E
:100F60003FFFC0383FFF0F07870000E1FFF80E008A
:100F70000FFF00381FF38FFF070000E0FF9C0E00FB
:100F800003FC003807C18FFE070000E03E0C0C0098
:100F90000000003800000FF8000000000000000012
:100FA0000000000000000E000000007000000000C3
:100FB0000000000000000E000000007000000000B3
:100FC0000000000000000E00001000700000000093
:100FD0000000000000000E00003C00700000000057
:100FE0000000000000000E00003F00F000000000C4
:100FF0000000000000000E00001F80F00000000054
:101000000000000000000E000007C070000000009B
:101010000000000000000E000003F0F800000000D7
:101020000000000000000E000181F8F80000000040
:10103000000000000000000007F0FEF800000000C3
:10104000000000000000000007FE7FFC0000000020
:10105000000000000000000001FFFFFC0000000095
:101060000000000000000000003FFFFC0000000046
:1010700000000000000000000103FFFE000000006F
:10108000000000000000000007E3FFFE0000000079
:10109000000000000000000003FFFFFE0000000051
:1010A000000000000000000001FFFFFF80000000C2
:1010B0000000000000000000003FFFFF8000000073
:1010C00000000000000000000003FFFFFC00000023
:1010D00000000000000000000001FFFFFFC0000052
:1010E000000000000000000001FFFFFFFFF800000B
:1010F000000000000000000001FFFFFFFFFF800074
:10110000000000000000000001FFFFFFFFFFF900EA
:10111000000000000000000000007FFFFFFFFFF163
:10112000000000000000000000000FFFFFFFFFFFB5
:10113000000000000000000000000007FFFFFFFCAF
:10114000000000000000000000000001FFFFFFFCA5
:10115000000000000000000000000000FFFFFFF89A
:101160000000000000000000000000001FFFFFF86A
:101170000000000000000000000000000FFFFFF072
:1011800000000000000000000000000000FFFFF071
:10119000000000000000000000000000003FFFF021
:1011A000000000000000000000000000001FFFF031
:1011B0000000000000000000000000000001FFF03F
:1011C00000000000000000000000000000001FF808
:1011D000000000000000000000000000000000000F
:1011E00000000000000000000000000000000000FF
:1011F00000000000000000000000000000000000EF
:1012000000000000000000000000000000000000DE
:1012100000000000000000000000000000000000CE
:1012200000000000000000000000000000000000BE
:1012300000000000000000000000000000000000AE
:10124000000000000000000000000000000000009E
:10125000000000000000000000000000000000008E
:10126000000000000000000000000000000000007E
:10127000000000000000000000000000000000006E
:10128000000000000000000000000000000000005E
:10129000000000000000000000000000000000004E
:1012A000000000000000000000000000000000003E
:1012B000000000000000000000000000000000002E
:1012C000000000000000000000000000000000001E
:1012D000000000000000000000000000000000000E
:1012E00000000000000000000000000000000000FE
:1012F00000000000000000000000000000000000EE
:1013000000000000000000000000000000000000DD
:1013100000000000000000000000000000000000CD
:1013200000000000000000000000000000000000BD
:1013300000000000000000000000000000000000AD
:101340000003FFF80000000000003F000000000064
:101350000003FFF8C00000000000FF800000000054
:1013600000000C00C00000000001C000000C0000E4
:1013700000000C000000000000018000000C0000D4
:1013800000000C000000000000030000000C000042
:1013900000000C000000000000030000000C000032
:1013A00000000C00C339E03E00038001F0FFC000E4
:1013B00000000C00C37FF07F8001FE03FCFFC00033
:1013C00000000C00C3EF30E18000FF070C0C0000B0
:1013D00000000C00C3CC30C3800003861C0C00004E
:1013E00000000C00C38C318F000001CC780C000091
:1013F00000000C00C30C31BE000000CDF00C00005A
:1014000000000C00C30C31F0000000CF800C000085
:1014100000000C00C30C31C0000C00CE000C00001A
:1014200000000C00C30C3180C00C018C060C0000C5
:1014300000000C00C30C30E1C00F07870E0C000049
:1014400000000C00C30C30FF8007FE07FC0C0000FE
:1014500000000C00C30C303E0001F801F00C00004D
:10146000000000000000000000000000000000007C
:10147000000000000000000000000000000000006C
:10148000000000000000000000000000000000005C
:10149000000000000000000000000000000000004C
:1014A000000000000000000000000000000000003C
:1014B000000000000000000000000000000000002C
:1014C000000000000000000000000000000000001C
:1014D000000000000000000000000000000000000C
:1014E00000000000000000000000000000000000FC
:1014F00000000000000000000000000000000000EC
:1015000000000000000000000000000000000000DB
:1015100000000000000000000000000000000000CB
:1015200000000000000000000000000000000000BB
:1015300000000000000000000000000000000000AB
:10154000000000000000000000000000000000009B
:10155000000000000000000000000000000000008B
:10156000000000000000000000000000000000007B
:10157000000000000000000000000000000000006B
:10158000000000000000000000000000000000005B
:10159000000000000000000000000000000000004B
:1015A000000000000000000000000000000000003B
:1015B000000000000000000000000000000000002B
:1015C000000000000000000000000000000000001B
:1015D000000000000000000000000000000000000B
:1015E000000F800000000003FFFF0000000000006B
:1015F000003FF00000000003FFFF9C00000000001F
:1016000000FFF00000000001FFFF9C000000000050
:1016100000F07000000C000003801C0000000000BF
:1016200001C00000000E0000038000000000000068
:1016300003800000000E0000038000000000000096
:1016400003800000000E0000038000000000000086
:1016500003800000000E0000038000000000000076
:1016600003E0001F81FFF00003801C38E3E00FC09F
:1016700001FF807FE1FFF00003801C39F7F03FF0AD
:1016800001FFE0FFF0FFE00003801C3BFFF07FF86C
:10169000007FF1F0F00E000003801C3FBEF0F878F0
:1016A0000001F1C0F00E000003801C3E3C70E078A9
:1016B00000007BC3E00E000003801C3C3871E1F0A9
:1016C00000003B8FC00E000003801C383871C7E05B
:1016D00000003BFF000E000003801C383871FF80C3
:1016E00000003BF8000E000003801C383879FC0035
:1016F0000E003BC0000E000003801C383839E000AB
:101700000F007380180E000003801C383839C00C9D
:101710000F81F1E0780E000003801C383838F03C6F
:1017200007FFE1FFF80E000003801C383838FFFC8B
:1017300003FF80FFE00E000003801C3838387FF084
:1017400000FE003F800E000003001C3838381FC028
:101750000000000000000000000000003800000051
:101760000000000000000000000000000000000079
:101770000000000000000000000000000000000069
:101780000000000000000000000000000000000059
:101790000000000000000000000000000000000049
:1017A00000000000000000018000000000000000B8
:1017B000000000000000003FFC00000000000000EE
:1017C00000000000000000F18F0000000000000099
:1017D000000000000000018181C000000000000046
:1017E000000000000000070180E000000000000091
:1017F0000000000000000C0180300000000000002C
:101800000000000000001801801800000000000027
:101810000000000000001001800C0000000000002B
:101820000000000000003001800400000000000003
:1018300000000000000060018006000000000000C1
:1018400000000000000040018002000000000000D5
:10185000000000000000C00186030000000000003E
:10186000000000000000C0018C0300000000000028
:10187000000000000000800198010000000000004E
:101880000000000000008001B001800000000000A6
:101890000000000000018001E00180000000000065
:1018A0000000000000018001C00180000000000075
:1018B00000000000000180018001800000000000A5
:1018C0000000000000018000000180000000000016
:1018D0000000000000008000000180000000000007
:1018E0000000000000008000000100000000000077
:1018F000000000000000C000000100000000000027
:10190000000000000000C000000300000000000014
:101910000000000000004000000300000000000084
:101920000000000000006000000600000000000051
:101930000000000000002000000400000000000083
:101940000000000000003000000C0000000000005B
:101950000000000000001800001800000000000057
:101960000000000000000C0000300000000000003B
:101970000000000000000600006000000000000001
:10198000000000000000038001C000000000000013
:1019900000000000000000E00780000000000000E0
:1019A000000000000000003FFE00000000000000FA
:1019B0000000000000000007E00000000000000040
:1019C0000000000000000000000000000000000017
:1019D00000000E0030038001801C038FFFC0000058
:1019E00000000F0038038003C01C078FFFF00000C9
:1019F0000000070078070003C01C078FFFF00000FD
:101A00000000070078070007C01C0F0E0000000050
:101A100000000780F807000FC01C1E0E0000000029
:101A200000000380F807000FC01C3C0E00000000FF
:101A300000000380F80E001EE01C3C0E00000000B9
:101A400000000381DC0E001EE01C780E0000000088
:101A5000000001C1DC0E003CE01CF00E00000000A4
:101A6000000001C1DC1C007CE01DE00E0000000055
:101A7000000001C39C1C0078E01FC00E0FE00000B6
:101A8000000001C39C3C00F0701F800FFFE00000CD
:101A9000000000C39C3800F3F01F000FFFE00000BF
:101AA000000000E71C3801FFF01F000FF0000000ED
:101AB000000000E70E7003FFF01F800E0000000022
:101AC000000000EE0E7003FC701FC00E000000004E
:101AD0000000006E0E7003C0381DE00E0000000014
:101AE0000000007C0EE00380381CF80E00000000AF
:101AF0000000007C0EE00780381C7C0E0000000017
:101B00000000007C0EE00700381C1E0E00000000E4
:101B1000000000780FC00F003C1C0F87FFE00000A2
:101B20000000003807C00E001C1C07C7FFE00000C3
:101B30000000003807800E000C1C01C1FFC000002F
:101B40000000000007800000001C000000000000F2
:101B50000000000000000000000C00000000000079
:101B60000000000000000000000000000000000075
:101B70000000000000000000000000000000000065
:101B80000000000000000000000000000000000055
:101B90000000000000000000000000000000000045
:101BA0000000000000000000000000000000000035
:101BB0000000000000000000000000000000000025
:101BC00000006000000000000000000000060000AF
:101BD0000600600000000000000000000006006039
:101BE0000780E0000000000000000000000701E0A6
:101BF00003C0C0000000000000000000000303C09C
:101C000001E0E00000000000000000000007078085
:101C100020F0E000000000000000000000070F04BA
:101C20007C7CF0000000000000000000000F3E3E41
:101C30003F3FF0000000000000000000000FFCFC2F
:101C400007FFF0000000000000000000000FFFE0B0
:101C5000E1FFF0000000000000000000000FFF871F
:101C6000F8FFF0000000C00187F80000000FFF1F20
:101C70007FFFF8000001C0038FFE0000001FFFFE81
:101C80000FFFF0000001C0038FFF0000000FFFF006
:101C900003FFFC000001C0038E0F8000003FFFC067
:101CA00000FFFE000001C0038E03C000007FFF00A4
:101CB0007FFFFFC00001C0038E01C00003FFFFFED5
:101CC0007FFFFFF00001C0038E01C0000FFFFFFE89
:101CD00000FFFFFE0001C0038E01C0007FFFFF0078
:101CE000001FFFFFC001C0038E03C003FFFFF80009
:101CF0000003FFFFF801C0038E03801FFFFFC00039
:101D000000001FFFFFC1C0038E0F83FFFFF800001C
:101D100000000FFFFFFFC0038FFF7FFFFFF00000F9
:101D2000000003FFFFFDC0038FFE3FFFFFC0000068
:101D3000000001FFFFF1C0070FF00FFFFF80000060
:101D40000000007FFFE1C0070E0007FFFE0000005B
:101D50000000001FFFE1E0070E0007FFF800000091
:101D600000000007FFC0E00F0E0003FFE0000000CE
:101D700000000003FFC0E00E0E0003FFC0000000E3
:101D8000000000003FC0F01E0E0003FC0000000039
:101D9000000000000FE07C3C0E0007F00000000097
:101DA0000000000007E03FFC0E0007E0000000001C
:101DB0000000000000C01FF80E000300000000003B
:101DC00000000000000007E00E000000000000001E
:101DD0000000000000000000000000000000000003
:101DE00000000000000000000000000000000000F3
:101DF00000000000000000000000000000000000E3
:101E000000000000000000000000000000000000D2
:101E100000000000000000000000000000000000C2
:101E20000060600000000003C00000000000001817
:101E3000006060000000000FE000000000000018DB
:101E400000E060000000000C00C00000000000186E
:101E500001A060000000001800C000000000001891
:101E600001B060000000001800C001806000001890
:101E7000033060F33999C01FC3F0E1B86E07C1D8D1
:101E8000033063F3F9BFE00FE3F1F1FC7F0FE3F8F8
:101E900003F0633399EE600070C399C6718C6718C4
:101EA00007F8663319CC600030C319866199E618CB
:101EB0000F186633018C600030C31986619F861845
:101EC0000C186633018C603030C31986619C06188B
:101ED0000C186633018C603860C3398E639C2738D8
:101EE000180C63FB018C601FE0C1F1FC7F0FE3F86D
:101EF000180C61CB018C600F80C0E1F87E0781F87F
:101F000000000000000000000000018060000000F0
:101F100000000000000000000000018060000000E0
:101F200000000000000000000000018060000000D0
:101F300000000000000000000000018060000000C0
:101F400000000000000000000000018060000000B0
:101F50000000000000000000000000000000000081
:101F60000000000000000000000000000000000071
:101F70000000000000000000000000000000000061
:101F8000000000000000000C300000000000000015
:101F9000000000000000000C300000000000000005
:101FA0000000000000000000000000000000000031
:101FB0000000000000000000000000000000000021
:101FC000000000000000018001800000000000000F
:101FD00000000000000001C00380000000000000BD
:101FE00000000000000000F00F00000000000000F2
:101FF000000000000000007FFC0000000000000066
:10200000000000000000000FE000000000000000E1
:1020100000000000000000000000000000000000C0
:1020200000000000000000000000000000000000B0
:1020300000000000000000000000000000000000A0
:102040000000000000000000000000000000000090
:102050000000000000000000000000000000000080
:102060000000000000000000000000000000000070
:102070000000000000000000000000000000000060
:102080000000000000000000000000000000000050
:102090000000000000000000000000000000000040
:1020A0000007000000060030600000000000000093
:1020B000001FC0000006007060000000300000003B
:1020C0000038C00000060070E00000003000000092
:1020D0000030000000060070E0000000000000007A
:1020E0000060000000060070E0000000000000003A
:1020F000006001C0E07600D9A070CE6E33703C0065
:1021000000C3E3E1F0FE00D9B0F8FE7F33F8FE0033
:1021100000CFE73399C600D9B1CCE6733398C60037
:1021200000CC6633198600DB318CC6633319860018
:1021300000C0E633198600DB318CC063331986009A
:1021400000C0C6331986019B318CC06333198E00E1
:1021500000E1867339CE018E119CC06333198E0065
:10216000007F03E1F0FE018E18F8C0633318F6001B
:10217000003E01C0E07E018E1870C0633318760007
:102180000000000000000000000000000000060049
:1021900000000000000000000000000000000E0031
:1021A00000000000000000000000000000000C0023
:1021B0000000000000000000000000000001FC0022
:1021C0000000000000000000000000000001F80016
:1021D00001020408102040800102040810200102BE
:1021E0000408102000000000250028002B00040433
:1021F00004040404040402020202020203030303AF
:102200000303022200FF210066295E2E11241FBE57
:10221000CFEFD8E0DEBFCDBF11E0A0E0B1E0E2E655
:10222000F4E602C005900D92AE35B107D9F723E070
:10223000AEE5B1E001C01D92A139B207E1F711E1AD
:10224000C5E0D1E104C02197FE010E942030C430D6
:10225000D107C9F70E94322A0C9424320C94000052
:1022600008958F929F92AF92BF92FF920F931F9308
:10227000CF93DF93F0904A032BE02F1508F44CC066
:1022800020914C0308E512E0021B110927FD13956C
:10229000000F111F000F111F20914B03C8E8D0E061
:1022A000C21BD10927FDD395CC0FDD1FCC0FDD1F3D
:1022B0004E010D2E000CAA08BB089801012E000C3F
:1022C000440B550B281939094A095B09DC010E94A6
:1022D0006E2F24EB30E040E050E00E94442F820E4D
:1022E000931EA41EB51E8C169D062CF0E8018016C8
:1022F00091060CF4E4012297CC0FDD1F2FB7F89460
:102300008F2D90E0FC01EE0FFF1FE80FF91FE75E35
:10231000FC4FD283C1832FBFDF91CF911F910F91CB
:10232000FF90BF90AF909F908F900895089508956B
:102330000895AF92BF92CF92DF92EF92FF920F93E8
:102340001F93CF93DF936C017B018B01040F151F4B
:10235000EB015E01AE18BF08C017D10759F06991B3
:10236000D601ED91FC910190F081E02DC601099517
:10237000892B79F7C501DF91CF911F910F91FF90C4
:10238000EF90DF90CF90BF90AF900895FC01448113
:102390005581608171818DE493E00C949911FC0169
:1023A000538D448D252F30E0842F90E0821B930BBA
:1023B000541710F0CF96089501970895FC01918D60
:1023C000828D981761F0A28DAE0FBF2FB11D5D9663
:1023D0008C91928D9F5F9F73928F90E008958FEF05
:1023E0009FEF0895FC01918D828D981731F0828DB9
:1023F000E80FF11D858D90E008958FEF9FEF089510
:10240000FC01918D228D892F90E0805C9F4F821B73
:1024100091098F73992708958CE792E00E9400122A
:1024200021E0892B09F420E0822F089580E090E0DC
:10243000892B29F00E940C1281110C940000089540
:10244000FC01A48DA80FB92FB11DA35ABF4F2C9129
:10245000848D90E001968F739927848FA689B78920
:102460002C93A089B1898C91837080648C93938D17
:10247000848D981306C00288F389E02D80818F7DBA
:1024800080830895EF92FF920F931F93CF93DF9372
:10249000EC0181E0888F9B8D8C8D98131AC0E889A0
:1024A000F989808185FF15C09FB7F894EE89FF896F
:1024B0006083E889F98980818370806480839FBF0D
:1024C00081E090E0DF91CF911F910F91FF90EF900D
:1024D0000895F62E0B8D10E00F5F1F4F0F7311271D
:1024E000E02E8C8D8E110CC00FB607FCFACFE88958
:1024F000F989808185FFF5CFCE010E942012F1CFAE
:10250000EB8DEC0FFD2FF11DE35AFF4FF0829FB7CB
:10251000F8940B8FEA89FB8980818062CFCFCF93BB
:10252000DF93EC01888D8823B9F0AA89BB89E889FB
:10253000F9898C9185FD03C0808186FD0DC00FB6A1
:1025400007FCF7CF8C9185FFF2CF808185FFEDCF1F
:10255000CE010E942012E9CFDF91CF910895833000
:1025600081F028F4813099F08230A9F00895873005
:10257000A9F08830C9F08430B1F4809180008F7D5B
:1025800003C0809180008F7780938000089584B588
:102590008F7784BD089584B58F7DFBCF8091B00087
:1025A0008F778093B00008958091B0008F7DF9CF30
:1025B000CF93DF93282F30E0F901E056F24F84915A
:1025C000F901E053FE4DD491F901E251FE4DC49161
:1025D000CC23A1F081110E94AF12EC2FF0E0EE0F9E
:1025E000FF1FEA56F24FA591B491EC91ED2381E0E3
:1025F00090E009F480E0DF91CF91089580E090E0D1
:10260000FACF1F93CF93DF93282F30E0F901E056E4
:10261000F24F8491F901E053FE4DD491F901E2515A
:10262000FE4DC491CC23A9F0162F81110E94AF1248
:10263000EC2FF0E0EE0FFF1FEC51FE4DA591B49191
:102640008FB7F894EC91111108C0D095DE23DC937C
:102650008FBFDF91CF911F910895DE2BF8CF90911E
:10266000000189130BC0E2E0F2E2E4919FEF909346
:102670000001E13049F028F0E23061F060E00C94B4
:10268000011310926E00FACF90916F009D7F90938E
:102690006F00F4CF909170009D7F9093700091E057
:1026A0009093B0009091B100987F94609093B100A6
:1026B0001092B300E3CFCF93DF9390E0FC01E0539F
:1026C000FE4D249182519E4DFC0184918823C9F0D6
:1026D00090E0880F991FFC01EC54F24FA591B49142
:1026E000FC01EC51FE4DC591D49161110DC09FB715
:1026F000F8948C91209582238C93888128232883B9
:102700009FBFDF91CF910895623051F49FB7F89445
:102710003C91822F809583238C93E8812E2BEFCFE1
:102720008FB7F894EC912E2B2C938FBFEACFCF92DA
:10273000DF92EF92FF92CF936C0180910001853080
:1027400049F08F3F09F444C0CF91FF90EF90DF90A4
:10275000CF900895E2E0F2E2C491C7FDF5CF61E0C9
:1027600085E00E945B13F12CE12CCC23D9F096017B
:1027700050E040E0C23009F09AC07A0160E970EDA3
:1027800083E090E00E94442FBA01A9014150510911
:102790006109710993E04F3F51056105710509F029
:1027A0000CF4C1C068E478EE81E090E0A7019601E6
:1027B0000E94442FBA01A9014150510961097109D0
:1027C00094E0C111B0C085B5887F836085BDB7C076
:1027D00085E080930001E2E0F2E2C491CF3F09F48A
:1027E000B3CFC13021F150F0C23009F43EC0C7FD73
:1027F000ABCF61E085E00E945B13B9CF14BC15BC80
:1028000084B5826084BD85B5816085BDE3EFF1E26A
:10281000E491F0E0EE0FFF1FEC51FE4D8591949195
:10282000E5EDF1E2E491E0936B02C0E098CF109205
:1028300080001092810080918100886080938100E7
:1028400080918100816080938100E3EFF1E2E49167
:10285000F0E0EE0FFF1FEC51FE4D85919491E5EDF8
:10286000F1E2E491E0936A027ACF1092B000109204
:10287000B1008091B00082608093B0008091B1007F
:1028800081608093B100E3EFF1E2E491F0E0EE0FBC
:10289000FF1FEC51FE4D85919491909369028093B6
:1028A0006802E5EDF1E2E491E093670258CF60E061
:1028B00072E18AE790E00E94442FBA01A9014150D9
:1028C000510961097109C130A1F580918100887FAA
:1028D00081608093810050938900409388008FEF3E
:1028E0009FEFDC018093700290937102A0937202BB
:1028F000B093730280916F00826080936F0024CF49
:102900004093B3008FEF9FEFDC0180936C029093B4
:102910006D02A0936E02B0936F028091700082608E
:102920008093700011CF8091B100887F892B8093B4
:10293000B100C13081F2C23019F3C11105CF47BDDA
:102940008FEF9FEFDC018093740290937502A09348
:102950007602B093770280916E00826080936E0061
:10296000F3CE3FB7F8948091540290915502A09114
:102970005602B091570226B5A89B05C02F3F19F00B
:102980000196A11DB11D3FBFBA2FA92F982F8827EF
:10299000BC01CD01620F711D811D911D42E0660FCA
:1029A000771F881F991F4A95D1F708958F929F929C
:1029B000AF92BF92CF92DF92EF92FF924B015C01F8
:1029C0000E94B1146B017C010E94B1146C197D0945
:1029D0008E099F09683E734081059105A8F321E0A7
:1029E000821A9108A108B10888EEC80E83E0D81EAB
:1029F000E11CF11C81149104A104B10429F7FF909A
:102A0000EF90DF90CF90BF90AF909F908F90089500
:102A10002FB7F89460915002709151028091520248
:102A2000909153022FBF0895EF92FF920F931F933F
:102A3000CF93DF93EC01EC80FD806E157F050CF0E9
:102A400070C057FF04C0240F351F50E040E08E8156
:102A50009F81FA01E20FF31F8E179F071CF49C0160
:102A6000241B350B121613060CF05BC0922F842F1B
:102A70008695869586958E9DD0018F9DB00D1124EB
:102A80006A0F7B1FAF8DB8A1A60FB71F477049F122
:102A900088E0841B482F682F70E0FB01E257F24F5B
:102AA000E491281708F063C0621B71092FEF30E032
:102AB00002C0359527956A95E2F7E22301301105AA
:102AC00039F0B0F10230110561F58C91E82702C0B0
:102AD0008C91E82BEC93941720F12C813D81A20F6F
:102AE000B31FE92FE41BE83078F00230110521F51F
:102AF0008E2F9C9190959C932C813D81A20FB31FAA
:102B000088508830B0F7E770EE2359F0F0E0EA57CC
:102B1000F24FE49101301105F9F010F10230110586
:102B200019F1DF91CF911F910F91FF90EF900895D0
:102B3000E0958C91E823CECF81E00115110509F4D1
:102B400080E081959E2F8C932C813D81A20FB31F35
:102B500098509830C0F7D7CF8C91E82BEC93E1CF09
:102B6000E0958C91E823FACF8C91E827F7CF0130DC
:102B7000110509F4ADCFE0F20230110509F4A5CF3B
:102B8000AE0DBF1DAECF0F931F93CF93DF9377FF93
:102B900004C0260F371F70E060E0DC011496CD9171
:102BA000DC91FB01E20FF31FCE17DF071CF49E013F
:102BB000261B370B121613064CF5FA0157FD3796F4
:102BC000A3E0F595E795AA95E1F7EC9FD001ED9F7D
:102BD000B00DFC9FB00D11246A0F7B1FDC015F96C6
:102BE000ED91FC91E60FF71F4770552781E090E0CB
:102BF00001C0880F4A95EAF7482F0130110559F0B6
:102C0000A8F02E0F3F1F02301105E1F0DF91CF91A8
:102C10001F910F9108952E0F3F1FE217F307B1F395
:102C20008191DF011197842B8C93F7CF80952E0F24
:102C30003F1FE217F30751F39191DF01119798239A
:102C40009C93F7CFE217F30709F38191DF01119706
:102C500084278C93F7CF0F931F93FA01DC015696CC
:102C60004C9156974230E9F04330A1F1413061F583
:102C700014964D915C91DA01AE1BBF0BFD01E21B76
:102C8000F30B77FD0BC0DC0116964D915C91641738
:102C9000750724F4AB01BF010E94C3151F910F916A
:102CA000089514964D915C91DA01A61BB70BBD01F6
:102CB00061507109DC0116964D915C91DA01AE1BF1
:102CC000BF0BFD01E21BF30B77FDE8CFAF010E94C4
:102CD0001415E4CF16964D915C91DA01A61BB70B43
:102CE000BD0161507109CDCF0F931F93FA01DC0133
:102CF00056964C9156974230A9F0433091F14130AD
:102D000019F514964D915C91DA01AE1BBF0BFD01D4
:102D10003197F7FD04C0AB01BF010E9414151F914C
:102D20000F91089514964D915C91DA01A61BB70B93
:102D3000BD01DC0116964D915C91DA01AE1BBF0B13
:102D4000FD013197621B730BF7FDE9CFDC0116968D
:102D50004D915C91E417F50714F7AF010E94C3157C
:102D6000DECF16964D915C91DA01A61BB70BBD0123
:102D7000621B730BCECFFC0177FD64C0808591850B
:102D8000681779070CF05EC057FD5CC0828593859B
:102D9000481759070CF056C086898230B1F083304D
:102DA00029F1813041F484819581841B950BAB011D
:102DB000BC01615071092130310509F108F443C0AB
:102DC0002230310509F463C0089584819581DC01C6
:102DD000A61BB70BBD016150710986819781DC018B
:102DE000A41BB50BAD0141505109E5CF86819781F8
:102DF000861B970BBA01AC0141505109DCCFCA01C7
:102E000057FD0796A3E095958795AA95E1F7A481CC
:102E1000B5818A9F90018B9F300D9A9F300D1124B0
:102E2000620F731F078CF0A1E02DE60FF71F4770AC
:102E3000552721E030E001C0220F4A95EAF7808152
:102E4000822B80830895CA0157FD079633E095953C
:102E500087953A95E1F7A481B5818A9F90018B9F70
:102E6000300D9A9F300D1124620F731F078CF0A153
:102E7000E02DE60FF71F4770552781E090E001C075
:102E8000880F4A95EAF7809590818923DACFCA01A5
:102E900057FD079623E0959587952A95E1F7A4813C
:102EA000B5818A9F90018B9F300D9A9F300D112420
:102EB000620F731F078CF0A1E02DE60FF71F47701C
:102EC000552721E030E001C0220F4A95EAF78081C2
:102ED0008227B7CF8EBD00000DB407FEFDCF8EB5A3
:102EE00008950895FC016370668B84819581268125
:102EF0003781613039F0633029F0918780873387DB
:102F000022870895318720879387828708952F929B
:102F10003F924F925F926F927F928F929F92AF9269
:102F2000BF92CF92DF92EF92FF920F931F93CF93B6
:102F3000DF93CDB7DEB76A970FB6F894DEBF0FBE4A
:102F4000CDBF9A8F898F7A8369834A01D22E1887E1
:102F50000F833701BC2CDC0159962D913C915A9777
:102F60002115310509F015C118968D919C9119977D
:102F7000681779070CF0D7C11A968D919C91481764
:102F800059070CF0D0C14C2C512CB6E0CB9E600DF3
:102F9000711D11247C876B87161617060CF0C3C1B0
:102FA000EA2DF0E0FA87E98793E0EE0FFF1F9A958C
:102FB000E1F7F88BEF87CF01840F951F18161906DC
:102FC0000CF0B1C1A98DBA8D58968C91811104C0B5
:102FD000BFEABD1508F4D394A98DBA8DED91FC918B
:102FE00011970284F385E02DCD010995B5E0DB9EB4
:102FF000C0011124E981FA81FC83EB83312C212C5F
:103000009C012A57374F388F2F8B4A2D50E05E8B0B
:103010004D8BEF89F88DE20DF31D44919E828D82D8
:10302000D12CC12C69817A81620D731D7A8B698BD9
:10303000842F90E09C8B8B8BE98DFA8DA081B181E0
:1030400040FF82C0F1E0BF126FC0AF126DC01C968E
:10305000ED91FC912F813885A4014C0D5D1D69898E
:103060007A89898D9A8D0995EB89FC89F595E79583
:103070004E2F5FEFC51AD50A6D817E818D899E899D
:10308000680F791F7E836D8398E0C916D10481F69D
:10309000AFEF2A1A3A0AEB81FC81E40DF51DFC839F
:1030A000EB83F5E02F16310409F0B3CF2F8138857B
:1030B00026153705B9F0A98DBA8DED91FC91B1E0D7
:1030C000BB1257C0AB1255C069817A816B5F7F4FCD
:1030D0000088F189E02D830128E030E0A401898D8A
:1030E0009A8D0995A98DBA8DED91FC91119706885D
:1030F000F789E02DCD016A960FB6F894DEBF0FBEBA
:10310000CDBFDF91CF911F910F91FF90EF90DF9096
:10311000CF90BF90AF909F908F907F906F905F9077
:103120004F903F902F9009941E96ED91FC91EF8067
:10313000F88409851A8592014D815E816B817C81BD
:10314000898D9A8D099590CF2F8138852615370561
:1031500009F48ACF31E0B31207C0A31205C01C9650
:10316000ED91FC91930178CF1E96ED91FC91730146
:10317000E0CF6B857C85641975090684F785E02DA1
:1031800073010F8518899201A401898D9A8D099583
:10319000A9CFF90134969491329745915491D91A57
:1031A000B7E0DB9E400D511D1124F90125913491AA
:1031B0003C8B2B8BFA0125903490FA013296749057
:1031C00031963491398B329664903196449041E037
:1031D0004C1518F04A1508F07FC0662D062C000C1F
:1031E000770B7C836B83842D042C000C990B9E83BE
:1031F0008D83A98DBA8DED91FC9111970284F38591
:10320000E02DCD010995512CD12CC12CEA2DF0E0F7
:10321000FA87E9872B2D30E03C872B87A401440DEA
:10322000511D47FC5A95588F4F8B69817A81660DE5
:10323000711D67FC7A957E876D877989C71608F0BE
:1032400051CF2C2D30E04D815E81420F531FA98557
:10325000BA854A9FC0014B9F900D5A9F900D112433
:10326000FC01E80DF91DF88BEF87852D612C4F8946
:10327000588D420F531F5E8B4D8B671408F050C062
:1032800044244394480E877041F4C1010196EB89B0
:10329000FC89E20DF31DD4901C01D7FE19C0A98D45
:1032A000BA8DED91FC91662D70E0B1E0BB1219C0B2
:1032B000AB1217C02D853E85620F731F0484F58500
:1032C000E02D2F8138854D895E89898D9A8D0995EC
:1032D000DD0C6394842DD1CF1E821D821C821B8243
:1032E00088CF4B815C81640F751FAB85BC856A9F5D
:1032F000C0016B9F900D7A9F900D112469817A8196
:10330000680F791F0684F785E02DEF80F884098522
:103310001A859D014F855889898D9A8D0995D8CF39
:10332000570CC3948ACF6A960FB6F894DEBF0FBECF
:10333000CDBFDF91CF911F910F91FF90EF90DF9064
:10334000CF90BF90AF909F908F907F906F905F9045
:103350004F903F902F9008958F929F92AF92CF926F
:10336000EF92FF920F931F93CF93DF93EC01262FE1
:10337000898D9A8D009709F051C06A30D1F41D866D
:103380001C868D8948E0849F900111248E859F853D
:10339000820F931F9F878E8781E090E0DF91CF910E
:1033A0001F910F91FF90EF90CF90AF909F908F90D3
:1033B00008956D3089F3CC88AD888F898823C1F05A
:1033C0008C859D8536E0C39E800D911D1124488516
:1033D00059854817590764F44E855F851D861C86FC
:1033E00038E0A39EC0011124840F951F9F878E870C
:1033F000EA88FB88088919894E855F856C857D85FB
:10340000CE010E9487172C898C859D8546E0249FDC
:10341000800D911D11249D878C87BECF6A3069F481
:103420001D861C86FC013896E4912D898E859F852A
:10343000E29F800D911D1124ADCF6D3009F4ACCF0A
:10344000FC0134963491631708F4A6CF3296E491C8
:10345000E61708F4A1CFFC01329685909490462F90
:10346000431B342F47E0349F800C911C1124F4013E
:10347000329634913196E4913323A9F1EE2399F1F8
:10348000CC88F4013596E491AD884F89442301F14D
:103490000E2E000CFF0BE30FF11DCE9EA001CF9E60
:1034A000500D11246C857D85460F571F68857985E1
:1034B000641775076CF44E855F851D861C86FC01BC
:1034C0003896E491AE9E400D511D11245F874E87C2
:1034D000EA88FB88088919894E855F856C857D851A
:1034E000CE010E948717F4013496E4912C898C85D3
:1034F0009D85E29F800D911D11248DCF6F927F924B
:103500008F929F92AF92BF92CF92DF92EF92FF92F3
:103510000F931F93CF93DF93EC016B015A01390195
:103520004801E881F9810284F385E02D0995E8815D
:10353000F9810288F389E02D87019301A501B60185
:10354000CE010995A501480D591D41505109E88149
:10355000F9810288F389E02D9301B601CE01099526
:10356000E881F9810088F189E02D9401A501B60177
:10357000CE010995C60CD71CB60161507109E881CE
:10358000F9810088F189E02D9401A501CE0109950A
:10359000E881F9810688F789E02DCE01DF91CF918E
:1035A0001F910F91FF90EF90DF90CF90BF90AF9061
:1035B0009F908F907F906F9009946F927F928F92DF
:1035C0009F92AF92BF92CF92DF92EF92FF920F93B2
:1035D0001F93CF93DF935C01EB016A01490138012E
:1035E0008701DC01ED91FC916217730719F56416F0
:1035F00075062CF0962D872D3A01C92ED82E9601EE
:10360000261937092F5F3F4F048CF58DE02DA3015C
:10361000BE01C5010995DF91CF911F910F91FF90D8
:10362000EF90DF90CF90BF90AF909F908F907F9062
:103630006F9008954615570591F42617370724F023
:10364000892D4B01C22FD82F9E01281939092F5FD0
:103650003F4F068CF78DE02DA601B401DACF02842E
:10366000F385E02D0995D501ED91FC910488F5894C
:10367000E02D83019401A601BE01C5010995D50184
:10368000ED91FC910688F789E02DC501DF91CF917E
:103690001F910F91FF90EF90DF90CF90BF90AF9070
:1036A0009F908F907F906F900994EF92FF920F936D
:1036B0001F93DC011A960D911C911B9718962D9162
:1036C0003C911997ED91FC9100A0F1A1E02D7B01B7
:1036D00050E040E070E060E009951F910F91FF908D
:1036E000EF9008954F925F926F927F928F929F9288
:1036F000AF92BF92CF92DF92EF92FF920F931F9300
:10370000CF93DF936C012B015A0139014801DC0191
:10371000ED91FC910284F385E02D0995E201640CA2
:10372000751CD601ED91FC91C615D7055CF4008897
:10373000F189E02D87019401A501BE01C60109951B
:103740002196EFCF0688F789E02DC601DF91CF9152
:103750001F910F91FF90EF90DF90CF90BF90AF90AF
:103760009F908F907F906F905F904F9009948F9271
:103770009F92AF92BF92CF92DF92EF92FF920F9300
:103780001F93CF93DF93EC015B014A016901E8814C
:10379000F9810284F385E02D099595012C0D3D1DDD
:1037A00021503109E881F9810488F589E02D7801FB
:1037B0008401A401B501CE010995E881F98106884B
:1037C000F789E02DCE01DF91CF911F910F91FF90EE
:1037D000EF90DF90CF90BF90AF909F908F90099423
:1037E0008F929F92AF92BF92CF92DF92EF92FF9211
:1037F0000F931F93CF93DF93EC015B014A016901A3
:103800007801E881F9810284F385E02D0995C80CDF
:10381000D91C860101501109E881F9810488F589D4
:10382000E02D9501A401B501CE010995E881F9814A
:103830000688F789E02DCE01DF91CF911F910F917E
:10384000FF90EF90DF90CF90BF90AF909F908F90C0
:103850000994EF92FF920F931F93DC01ED91FC917D
:1038600000A0F1A1E02D09951F910F91FF90EF901D
:1038700008950F931F93DC01ED91FC91068CF78D59
:10388000E02D09951F910F9108950F931F93DC016F
:10389000ED91FC91048CF58DE02D09951F910F9110
:1038A0000895DC01ED91FC910084F185E02D0994EF
:1038B000BF92CF92DF92EF92FF920F931F93CF931D
:1038C000DF936C01F12CE12CB12C10E000E0D0E092
:1038D000C0E0CE0187709927BB0C892B59F4FE01FB
:1038E00083E0F595E7958A95E1F7EE0DFF1DEC0D68
:1038F000FD1DB490B7FE08C021E030E0A801BE0174
:103900008DE493E00E94511C2196C038D10509F73F
:103910000F5F1F4F80E1E80EF11C00341105B9F66E
:10392000DF91CF911F910F91FF90EF90DF90CF909B
:10393000BF9008952F923F924F925F926F927F9225
:103940008F929F92AF92BF92CF92DF92EF92FF92AF
:103950000F931F93CF93DF9300D000D000D0CDB74B
:10396000DEB73C016A013E832D83FC82EB82580165
:10397000A41AB50AB7FE03C0B194A194B1088D8012
:103980009E80861A970A97FE03C0919481949108AD
:103990008A149B045CF0902F812F0D811E819D83E2
:1039A0008E839C2D8D2D6B01692F782F0C151D0595
:1039B0005CF09D818E817E836D83692F782F902F9F
:1039C000812F8601C92ED82E1601201A310A2B010B
:1039D0002D813E81421A530A57FE03C051944194EF
:1039E0005108710137FE03C03FEFE31AF30AF59463
:1039F000E7948D819E81861797075CF5A1E0B0E082
:103A0000BA83A983C016D1064CF1D301ED91FC9184
:103A10000484F585E02D2B813C81A8016D817E8198
:103A20008A149B041CF04D815E81B801C301099585
:103A3000E418F508F7FE0AC02D813E8189819A813C
:103A4000280F391F3E832D83E20CF31C0F5F1F4F9D
:103A5000D9CF2FEF3FEF3A832983D4CF26960FB6E5
:103A6000F894DEBF0FBECDBFDF91CF911F910F91B4
:103A7000FF90EF90DF90CF90BF90AF909F908F908E
:103A80007F906F905F904F903F902F90089520917E
:103A90000402260F3327331F21323105ECF4209125
:103AA0002802FC0190E080E0243069F082E0089573
:103AB000A09104022191AC014C515E4FA40FB52F8F
:103AC000B11D2C930196861798F380910402680F1C
:103AD0006093040280E0089581E008951092280226
:103AE00081E080932A021092290261E082E10E9423
:103AF000011361E083E10E940113E9EBF0E08081B2
:103B00008E7F808380818D7F808388E48093B8005E
:103B100085E48093BC000895CF93DF9391E0909368
:103B2000E3018823B9F0C091B800D091BA00809128
:103B3000BC008A7B8093BC0060E082E10E9401139C
:103B400060E083E10E9401130E946E1DD093BA00D1
:103B5000C093B800DF91CF910895E0915E0280910B
:103B60005D02E81730F4F0E0E254FE4F808190E00F
:103B700008958FEF9FEF089590915E0280915D020E
:103B80002FEF3FEF981748F4E92FF0E0E254FE4F93
:103B9000208130E09F5F90935E02C901089580917B
:103BA0005D0290915E02891B990B0895CF92DF927E
:103BB000EF92FF920F931F93CF93DF937C01CB0182
:103BC0008A0120917B02222389F0EB016B01C40E54
:103BD000D51ECC15DD0569F06991D701ED91FC91F9
:103BE0000190F081E02DC7010995F3CF642F0E9469
:103BF000471DC801DF91CF911F910F91FF90EF906A
:103C0000DF90CF900895CF93DF931F92CDB7DEB7AB
:103C1000698320917B022223F9F0209178022032DF
:103C200058F021E030E0FC013383228390E080E013
:103C30000F90DF91CF91089580917902E82FF0E005
:103C4000E256FE4F998190838F5F80937902809333
:103C5000780281E090E0ECCF61E0CE0101960E9415
:103C6000471DF7CFCF92DF92EF92FF920F931F93F2
:103C7000CF93DF93D091780281E0D13208F09CC0DD
:103C8000C0917A020E94B1146B017C0180912802DC
:103C900081116CC082E08093280281E080932A0227
:103CA0008FEF8093270210924C02D0934B02AEE923
:103CB000B1E0EBE2F2E080E0D8138DC010924D024B
:103CC00080914D02CC0FC82BC0934D0280912902E8
:103CD000813009F084C0109229020E94B1146B0156
:103CE0007C0180914D028093BB008091DF01909117
:103CF000E001A091E101B091E201892B8A2B8B2B8D
:103D0000A1F00E94B1140091DF011091E001209117
:103D1000E1013091E2016C197D098E099F090617B6
:103D200017072807390708F442C08091BC0083FDBB
:103D3000D8CF85EC8093BC000E94B1146B017C014C
:103D400080912802823009F44CC0809127028F3F75
:103D500009F469C080912702803209F466C080911D
:103D60002702803309F463C084E026C08091DF011C
:103D70009091E001A091E101B091E201892B8A2BA1
:103D80008B2B09F483CF0E94B1140091DF011091B5
:103D9000E0012091E1013091E2016C197D098E0969
:103DA0009F09061717072807390708F06FCF80917A
:103DB000DE010E948C1D85E010927902109278023B
:103DC00010927B02DF91CF911F910F91FF90EF90A6
:103DD000DF90CF9008959D9191938F5F6DCF85EE89
:103DE000A9CF8091DF019091E001A091E101B09114
:103DF000E201892B8A2B8B2B09F4A2CF0E94B114EC
:103E00000091DF011091E0012091E1013091E20188
:103E10006C197D098E099F090617170728073907AE
:103E200008F08ECFC4CF80E0C7CF82E0C5CF83E05B
:103E3000C3CFEF92FF920F931F93CF93DF937C0139
:103E4000C62F80916A0390916B03009709F459C0C3
:103E500020916E0331E030937B0220937A0210921E
:103E6000790210927802DC01ED91FC910190F081D1
:103E7000E02D60E009958701EE24E394F12CD1E078
:103E8000C15080916A0390916B03CF3F91F1B0E2F2
:103E9000EB16F104D8F00E94321E80916A039091D3
:103EA0006B0320916E03D0937B0220937A021092D1
:103EB000790210927802DC01ED91FC910190F08181
:103EC000E02D60E00995EE24E394F12C80916A03E3
:103ED00090916B03F8016491DC01ED91FC910190EC
:103EE000F081E02D0995BFEFEB1AFB0A0F5F1F4F22
:103EF000C7CFDF91CF911F910F91FF90EF900C945E
:103F0000321EE0917A03F0917B03908180918003CF
:103F10008095892380838701C15008F438C0F80157
:103F200084912091680330916903232B29F00E942A
:103F30006A170F5F1F4FF0CF28E030E040E8E091B4
:103F40007603F091770390917E03582F5423D9F094
:103F50005081952B9083E0917803F09179039081C3
:103F600050917F03952B9083E0917803F091790332
:103F7000508190917F039095952390834695215091
:103F80003109E9F6D6CF508190959523E3CFDF91A3
:103F9000CF911F910F91FF90EF9008951F93CF93B2
:103FA000DF93EC018D8D9E8D009721F1162F29A1B5
:103FB00031E030937B0220937A02109279021092C2
:103FC0007802DC01ED91FC910190F081E02D60E040
:103FD00009958D8D9E8DDC01ED91FC910190F08114
:103FE000E02D612F09958D8D9E8DDF91CF911F91D1
:103FF0000C94321EADA5BEA59C918BA980958923FA
:104000008C938B8D9C8D892B31F0862FDF91CF91F6
:104010001F910C946A1728E030E080E8A9A5BAA5A2
:1040200099A9462F4823C1F04C91942B9C93ABA5A2
:10403000BCA59C914AA9942B9C93ABA5BCA54C9183
:104040009AA9909594239C9386952150310931F734
:10405000DF91CF911F9108954C9190959423E6CFD5
:1040600090E080E0089508958CBD9DBD0895DF9295
:10407000EF92FF920F931F93CF93DF9380916A0388
:1040800090916B03892B09F498C0209182033091A1
:104090008303409184035091850360E074E284EFD0
:1040A00090E00E94AD2F20513109410951095695E8
:1040B0004795379527952093B80065E083E092E215
:1040C0000E94191F6091510361508DE493E00E949A
:1040D000CE1F2091530330915403C901079697FDD9
:1040E000079633E0959587953A95E1F7209151032E
:1040F00030915203829F8001839F100D929F100D7B
:104100001124C0916C03D0916D0380916A0390914A
:104110006B030C0F1D1F009709F48FC020916E03D5
:1041200031E030937B0220937A0210927902109250
:104130007802DC01ED91FC910190F081E02D60E4CA
:104140000995EE24E394F12CDD24D39480916A0345
:1041500090916B030C171D0709F446C0B0E2EB16F3
:10416000F104D8F00E94321E80916A0390916B0393
:1041700020916E03D0927B0220937A0210927902F2
:1041800010927802DC01ED91FC910190F081E02D1C
:1041900060E40995EE24E394F12C80916A039091F8
:1041A0006B036991DC01ED91FC910190F081E02DB0
:1041B0000995BFEFEB1AFB0AC9CF80916803909174
:1041C0006903892B31F080918B0390918C030E94BD
:1041D0003420E0917C03F0917D03908180918103F4
:1041E00080958923808369CF0E94321E80916A0363
:1041F00090916B03892B09F461C020918603309163
:104200008703409188035091890360E074E284EF52
:1042100090E00E94AD2F2051310941095109569576
:104220004795379527952093B800DF91CF911F913F
:104230000F91FF90EF90DF900895E0917A03F09155
:104240007B03808190918003892B80830C171D074D
:1042500069F289912091680330916903232B19F049
:104260000E946A17F3CF28E030E040E8E09176033F
:10427000F091770390917E03582F5423D9F0508109
:10428000952B9083E0917803F09179039081509180
:104290007F03952B9083E0917803F091790350810F
:1042A00090917F03909595239083469521503109F5
:1042B000E9F6CCCF508190959523E3CFE0917C0334
:1042C000F0917D03808190918103892B8083ADCF14
:1042D0001F93CF93DF93EC01162F8D8D9E8D892B2D
:1042E000B1F12DA93EA94FA958AD60E074E284EF69
:1042F00090E00E94AD2F2051310941095109569596
:104300004795379527952093B80066EA111167EA1B
:10431000CE010E94CE1F8D8D9E8D892B41F129AD3E
:104320003AAD4BAD5CAD60E074E284EF90E00E948A
:10433000AD2F2051310941095109569547953795BF
:1043400027952093B800DF91CF911F9108958B8D11
:104350009C8D892B21F08EAD9FAD0E943420EFA55E
:10436000F8A990818CA9809589238083CECFEFA571
:10437000F8A980819CA9892B8083E5CF87E295E00D
:104380000E94971364EF71E080E090E00E94D614E1
:1043900083E992E00E9497136DE770E080E090E07F
:1043A0000E94D6148CED93E00E94971364EF71E0A5
:1043B00080E090E00E94D61480E793E00E9497137B
:1043C00068EE73E080E090E00E94D61487E295E00A
:1043D0000E94971364EF71E080E090E00E94D61491
:1043E0008CED93E00E94971368EE73E080E090E01C
:1043F0000E94D61485E00C942F13FC01019000203C
:10440000E9F73197AF01481B590BBC018DE493E0EC
:104410000C9499112091530330915403C9010796CC
:1044200097FD079623E0959587952A95E1F72091CA
:10443000510330915203829FA001839F500D929FA0
:10444000500D112470E060E080916C0390916D0339
:104450000C9416320E940A220E94372064E670E013
:1044600080E090E00C94D6140E940A2286E894E042
:104470000E94581C0C9437200E940A2286E890E083
:104480000E94581C0C9437200E9408320F931F93EF
:10449000CF93DF938C01EB01FC0180819181009728
:1044A000E1F06881798161157105A9F0428153813C
:1044B0002C813D814217530770F00E941D328C8180
:1044C0009D81F801958384831D821C82DF91CF91A9
:1044D0001F910F9108950E94C23088819981F8013F
:1044E000918380838A819B81938382838C819D8148
:1044F00095838483198218821B821A82E5CFCF9319
:10450000DF93EC0188819981009711F00E94C230FD
:10451000198218821D821C821B821A82DF91CF9120
:104520000895FC0180819181009711F00C94C230B4
:1045300008950F931F93CF93DF93EC0188819981A6
:10454000009759F02A813B812617370730F081E028
:10455000DF91CF911F910F9108958B016F5F7F4F76
:104560000E944B31009759F0998388831B830A83FB
:104570002C813D81232B59F7FC011082E8CF80E08C
:10458000E7CFEF92FF920F931F93CF93DF93EC014E
:10459000FB01E080F180E114F10411F10481158147
:1045A00001151105A9F08C819D81080F191FB80113
:1045B000CE010E949922882399F0288139818C812B
:1045C0009D81B701820F931F0E941D321D830C83B2
:1045D000CE01DF91CF911F910F91FF90EF90089541
:1045E000CE010E947F22F4CFEF92FF920F931F9390
:1045F000CF93DF93EC017B018A01BA010E949922DB
:1046000081110BC0CE010E947F22CE01DF91CF919C
:104610001F910F91FF90EF9008951D830C83B701B8
:10462000888199810E941D32F0CFFC011182108295
:10463000138212821582148241E050E067E571E036
:104640000C94F422EF92FF920F931F93CF93DF937A
:10465000CDB7DEB7A2970FB6F894DEBF0FBECDBFC1
:104660008C01CB01BA01F8011182108213821282EF
:10467000158214822AE0AE014F5F5F4F7A010E94DB
:10468000742EF70101900020E9F73197AF014E1920
:104690005F09B701C8010E94F422A2960FB6F894F0
:1046A000DEBF0FBECDBFDF91CF911F910F91FF9065
:1046B000EF900895CF93DF93EC01FB0186179707E6
:1046C00049F0608171816115710541F04481558126
:1046D0000E94F422CE01DF91CF9108950E947F22A3
:1046E000F9CF85ED8093BC008091DF019091E001CE
:1046F000A091E101B091E2010796A11DB11D23E057
:10470000B695A795979587952A95D1F72091BC00E6
:1047100024FD03C01092280208954091DF015091BA
:10472000E0016091E1017091E201452B462B472B9E
:1047300069F30097A105B10541F025E32A95F1F74A
:1047400000000197A109B109E1CF8091DE010C942D
:104750008C1D4F925F926F927F928F929F92AF9239
:10476000BF92CF92DF92EF92FF92CF93DF93CDB7BC
:10477000DEB76C970FB6F894DEBF0FBECDBF1092B8
:104780005A031092590310925C0310925B030E942B
:104790000A2281E08093610380936203E2E8F0E003
:1047A000659174918EE591E00E946D2E8EE591E009
:1047B0000E94FD2189E591E00E94FD2182E0809325
:1047C00061038093620340906302509064026090A2
:1047D000650270906602C301B20120E137E240E059
:1047E00050E00E94442FCA01B9010E94BC2E0E94D1
:1047F000DE2F4B015C01A0EFB8EDAC019B010E94E4
:10480000712F460E571E681E791EC301B20124E6A1
:1048100030E040E050E00E94442FCA01B9010E94FC
:10482000BC2E0E94DE2F6B017C01ACE9BFEFAC0116
:104830009B010E94712F460E571E681E791E2CE3A5
:10484000421651046104710441F43FEFC31AD30AC4
:10485000E30AF30A412C512C32014CE3C416D10473
:10486000E104F10441F45FEF851A950AA50AB50A3F
:10487000C12CD12C760188E188169104A104B104E1
:1048800019F4812C912C5401A0E1B7E2A501940107
:104890000E94632F698F7A8F8B8F9C8FA4E6B0E084
:1048A000A70196010E94632F298D3A8D4B8D5C8D57
:1048B000620F731F841F951F640D751D861D971D44
:1048C0006093630270936402809365029093660222
:1048D000B501A401CE0107960E942223B701A601CB
:1048E000CE010D960E942223B301A201CE01439670
:1048F0000E9422238B859C850297A0F4CE0101960D
:104900000E941523BE01695F7F4FCE0101960E9470
:10491000C122BC01CE0107960E945A23CE01019606
:104920000E94912289899A890297A0F4CE0101966A
:104930000E941523BE01635F7F4FCE0101960E9446
:10494000C122BC01CE010D960E945A23CE010196D0
:104950000E9491228F89988D0297A0F4CE01019632
:104960000E941523BE016D5E7F4FCE0101960E940D
:10497000C122BC01CE0143960E945A23CE0101966A
:104980000E949122CE0107960E94C6118CE591E00B
:104990000E94FD21CE010D960E94C6118CE591E08A
:1049A0000E94FD21CE0143960E94C61189E591E047
:1049B0000E94FD2189E591E00E94FD2181E0809324
:1049C000610380936203E4E8F0E0659174918EE501
:1049D00091E00E946D2E8EE591E00E94FD2189E517
:1049E00091E00E94FD2182E0809361038093620345
:1049F00040905F025090600260906102709062028D
:104A0000C301B20120E137E240E050E00E94442FB0
:104A1000CA01B9010E94BC2E0E94DE2F4B015C012D
:104A2000A0EFB8EDAC019B010E94712F460E571EFE
:104A3000681E791EC301B20124E630E040E050E078
:104A40000E94442FCA01B9010E94BC2E0E94DE2F91
:104A50006B017C01ACE9BFEFAC019B010E94712F9F
:104A6000460E571E681E791E3CE34316510461042E
:104A7000710441F44FEFC41AD40AE40AF40A412C39
:104A8000512C32015CE3C516D104E104F10441F478
:104A90008FEF881A980AA80AB80AC12CD12C76017F
:104AA00028E182169104A104B10419F4812C912CFF
:104AB0005401B501A401CE0101960E942223BE013A
:104AC0006F5F7F4FCE0107960E944622CE0101966E
:104AD0000E949122B701A601CE0101960E942223D5
:104AE000BE016F5F7F4FCE010D960E944622CE0120
:104AF00001960E949122B301A201CE0101960E946B
:104B00002223BE016F5F7F4FCE0143960E94462253
:104B1000CE0101960E9491228B859C850297A0F47C
:104B2000CE0101960E941523BE01695F7F4FCE0121
:104B300001960E94C122BC01CE0107960E945A2311
:104B4000CE0101960E94912289899A890297A0F448
:104B5000CE0101960E941523BE01635F7F4FCE01F7
:104B600001960E94C122BC01CE010D960E945A23DB
:104B7000CE0101960E9491228F89988D0297A0F410
:104B8000CE0101960E941523BE016D5E7F4FCE01BE
:104B900001960E94C122BC01CE0143960E945A2375
:104BA000CE0101960E949122CE0107960E94C61165
:104BB0008CE591E00E94FD21CE010D960E94C61168
:104BC0008CE591E00E94FD21CE0143960E94C61122
:104BD00089E591E00E94FD210E943720CE01439695
:104BE0000E949122CE010D960E949122CE0107963D
:104BF0000E9491226C960FB6F894DEBF0FBECDBF17
:104C0000DF91CF91FF90EF90DF90CF90BF90AF906A
:104C10009F908F907F906F905F904F9008954F92EC
:104C20005F926F927F928F929F92AF92BF92CF923C
:104C3000DF92EF92FF921F93CF93DF93182F412CB7
:104C4000512C3201812C912C5401C12CD12C760194
:104C500083E00E94D812EC0182E00E94D8122097D3
:104C600071F42FEF421A520A620A720A2CE34216BA
:104C70005104610471041CF0412C512C3201892B28
:104C800081F48FEF881A980AA80AB80A28E18216D8
:104C90009104A104B10424F1CD2B21F1812C912C9C
:104CA0005401A0E1B7E2A50194010E94632F6B01BA
:104CB0007C01A4E6B0E0A30192010E94632FC60E1E
:104CC000D71EE81EF91E1123F9F0C0926302D0929C
:104CD0006402E0926502F09266020E94A923B8CFB6
:104CE000CD2BF9F6C701B601DF91CF911F91FF904F
:104CF000EF90DF90CF90BF90AF909F908F907F907C
:104D00006F905F904F900895C0925F02D0926002C2
:104D1000E0926102F0926202E0CF1F920F920FB612
:104D20000F9211242F933F934F935F936F937F9331
:104D30008F939F93AF93BF93EF93FF9380916C02F8
:104D400090916D02A0916E02B0916F02892B8A2B17
:104D50008B2BD1F190916702E0916802F09169028A
:104D600080818927808380916C0290916D02A0914F
:104D70006E02B0916F02181619061A061B069CF4F3
:104D800080916C0290916D02A0916E02B0916F02C1
:104D90000197A109B10980936C0290936D02A093D1
:104DA0006E02B0936F02FF91EF91BF91AF919F910F
:104DB0008F917F916F915F914F913F912F910F90C4
:104DC0000FBE0F901F901895809100010E942F1325
:104DD000EACF1F920F920FB60F9211242F933F9399
:104DE0004F935F936F937F938F939F93AF93BF93F3
:104DF000EF93FF938CE792E00E942012FF91EF91D6
:104E0000BF91AF919F918F917F916F915F914F91E2
:104E10003F912F910F900FBE0F901F9018951F92EA
:104E20000F920FB60F9211242F938F939F93EF93AE
:104E3000FF93E0918C02F0918D028081E0919202CB
:104E4000F091930282FD1BC09081809195028F5F4B
:104E50008F7320919602821741F0E0919502F0E065
:104E6000E458FD4F958F80939502FF91EF919F91AC
:104E70008F912F910F900FBE0F901F9018958081EA
:104E8000F4CF1F920F920FB60F9211242F933F93DE
:104E90008F939F93AF93BF93809150029091510253
:104EA000A0915202B091530230914F0223E0230FA0
:104EB0002D3758F50196A11DB11D20934F02809307
:104EC000500290935102A0935202B09353028091EA
:104ED000540290915502A0915602B091570201964A
:104EE000A11DB11D8093540290935502A0935602C8
:104EF000B0935702BF91AF919F918F913F912F91A6
:104F00000F900FBE0F901F90189526E8230F029662
:104F1000A11DB11DD2CF1F920F920FB60F92112477
:104F20002F933F934F935F936F937F938F939F93B1
:104F3000AF93BF93CF93DF93EF93FF9380914E0294
:104F4000C0913D03D0E087FF24C0109285001092ED
:104F5000840080914E028F5F80934E0280914E02BA
:104F6000082E000C990B8C179D0724F480914E029B
:104F70008C30C4F180918400909185000496803437
:104F80009C4908F47AC08091840090918500049631
:104F900076C080914E02082E000C990B8C179D074D
:104FA000C4F6E0914E028E2FEE0F990BFC01EE0F2E
:104FB000FF1FE80FF91FE75EFC4F808186FFC9CF16
:104FC000E0914E028E2FEE0F990BFC01EE0FFF1FAA
:104FD000E80FF91FE75EFC4F808160E08F730E944D
:104FE0000113B7CF2091840030918500E0914E02EB
:104FF0008E2FEE0F990BFC01EE0FFF1FE80FF91F2C
:10500000E75EFC4F81819281820F931F909389000C
:1050100080938800E0914E028E2FEE0F990BFC01D9
:10502000EE0FFF1FE80FF91FE75EFC4F808186FF40
:1050300011C0E0914E028E2FEE0F990BFC01EE0F86
:10504000FF1FE80FF91FE75EFC4F808161E08F735F
:105050000E940113FF91EF91DF91CF91BF91AF912A
:105060009F918F917F916F915F914F913F912F9180
:105070000F900FBE0F901F90189580E49CE99093BD
:105080008900809388008FEF80934E02E3CF1F92B8
:105090000F920FB60F9211242F933F934F935F936C
:1050A0006F937F938F939F93AF93BF93EF93FF93F0
:1050B0008091B900887F803609F44AC0F0F58832C3
:1050C00009F4A7C018F5803109F49BC0B8F488230F
:1050D00009F4F9C0883009F494C0FF91EF91BF91B1
:1050E000AF919F918F917F916F915F914F913F9180
:1050F0002F910F900FBE0F901F901895883109F4D3
:1051000088C0803251F78093270214C0803409F49C
:105110009DC040F48033B9F38833F9F680932702B9
:1051200085ECB0C0803509F485C0883509F496C097
:10513000883499F60E947123D0CF883909F48CC045
:1051400038F5883729F050F4883611F0803729F681
:1051500083E0809328021092260257C0883809F411
:105160007BC0803919F0803809F0B7CF80912602D2
:10517000803208F071C0E091260281E08E0F8093AA
:1051800026028091BB00F0E0EA5FFD4F80833DC0C6
:10519000803B39F0E0F4803A09F479C0883A09F0AC
:1051A0009CCF84E0809328021092050210920402A2
:1051B000E0915B02F0915C020995809104028111FB
:1051C0000FC081E0809304021092E40109C0803C8A
:1051D00009F4A6CF883C09F4A3CF883B09F07DCF22
:1051E000E091050281E08E0F80930502F0E0EC5122
:1051F000FE4F80818093BB00909105028091040254
:1052000029C080914D028093BB0085EC8093BC0047
:1052100064CF90914C0280914B02981758F5E09121
:105220004C0281E08E0F80934C02F0E0E55DFD4F73
:105230008081E9CFE0914C0281E08E0F80934C0297
:105240008091BB00F0E0E55DFD4F808390914C02C2
:1052500080914B029817C8F285E8D8CFE0914C02B4
:1052600081E08E0F80934C028091BB00F0E0E55D01
:10527000FD4F808380912A0281115CCF81E0809371
:10528000290284EA8093BC001092280226CF85EC84
:105290008093BC001092280280912602803230F464
:1052A000E0912602F0E0EA5FFD4F10826091260255
:1052B00070E0E0915902F0915A0286E092E009957F
:1052C000109226020ACF1092270234CF10927F024A
:1052D00010927E0288EE93E0A0E0B0E0809380021E
:1052E00090938102A0938202B09383022BE031E07D
:1052F00030937D0220937C0225EC30E030938902CC
:105300002093880224EC30E030938B0220938A02B1
:1053100020EC30E030938D0220938C0221EC30E0C1
:1053200030938F0220938E0222EC30E03093910272
:105330002093900226EC30E0309393022093920267
:105340001092950210929602109297021092980273
:1053500010924103109240038093420390934303C1
:10536000A0934403B09345038DE191E090933F03F4
:1053700080933E031092500310924F0320E830E0D8
:10538000309352032093510380E490E090935403B0
:1053900080935303309356032093550390935803FF
:1053A000809357031092630310925A03109259038B
:1053B00010925C0310925B0381E080936203809300
:1053C00061032FEF3FEF3093600320935F0330932F
:1053D0005E0320935D038093640310926503109233
:1053E0006703109266038FE291E090934E038093DF
:1053F0004D0310926903109268038EE393E090933B
:105400006B0380936A0310926D0310926C039FEFFD
:10541000909371039093720390937303909374032A
:1054200084E08093750380E580938B0310928C0356
:1054300080913D038C3098F491E0980F90933D0358
:1054400080934A0390E0FC01EE0FFF1FE80FF91F65
:10545000E75EFC4F88EB9BE09283818308959093F5
:105460004A030895789484B5826084BD84B58160D0
:1054700084BD85B5826085BD85B5816085BD80911F
:105480006E00816080936E00109281008091810097
:10549000826080938100809181008160809381008F
:1054A000809180008160809380008091B100846051
:1054B0008093B1008091B00081608093B0008091B2
:1054C0007A00846080937A0080917A008260809371
:1054D0007A0080917A00816080937A0080917A00CE
:1054E000806880937A001092C100E0918C02F09164
:1054F0008D0282E08083E0918802F091890210821F
:10550000E0918A02F0918B028FEC808310929402DA
:10551000E0919002F091910286E08083E0918E020A
:10552000F0918F02808180618083E0918E02F09102
:105530008F02808188608083E0918E02F0918F02DB
:10554000808180688083E0918E02F0918F0280815B
:105550008F7D808380916C0390916D03892B09F47A
:1055600088C00E940A2282E080936F0380916A03C0
:1055700090916B03892B09F02EC261E08091730337
:105580000E945B1361E0809174030E945B13809121
:105590007303082E000C990BFC01E251FE4DE491BF
:1055A000F0E0EE0FFF1FEC51FE4D2591349130934A
:1055B0007B0320937A03FC01E053FE4DE491E093DA
:1055C000800380917403082E000C990BFC01E251BA
:1055D000FE4DE491F0E0EE0FFF1FEC51FE4DA59162
:1055E000B491B0937D03A0937C03FC01E053FE4D86
:1055F000E491E09381038C91E82BEC938091680314
:1056000090916903892B09F4C5C2CFB7F8948091B2
:105610005802811127C0E8EFF1E28491EAEDF1E24E
:105620009491E82FF0E0EE0FFF1FEC54F24FA5919C
:10563000B491EC91E92321F461E08AE00E94011326
:1056400061E08AE00E945B138CB580618CBD8CB5F3
:1056500080648CBD61E08DE00E945B1361E08BE0B3
:105660000E945B13809158028F5F80935802CFBFD6
:10567000CBC12091530330915403C901079697FD84
:10568000079673E0959587957A95E1F720915103F8
:1056900030915203AC01429FC001439F900D529F35
:1056A000900D11240E94263090936D0380936C031B
:1056B000892B09F056CF0E94372082E08093610346
:1056C0008093620381E090E09093600380935F0396
:1056D00090935E0380935D0310925A0310925903D6
:1056E00010925C0310925B030E940A2280ED9DE001
:1056F0000E94581C0E9437200E94BE2168E873E176
:1057000080E090E00E94D6140E940A220E94372076
:1057100060E081E00E945B1362E082E00E945B1324
:1057200062E083E00E945B1362E084E00E945B130E
:1057300061E085E00E945B1380914A038C3008F0A1
:1057400051C061E089E00E945B1380914A03282FD9
:1057500030E0F901EE0FFF1FE20FF31FE75EFC4F91
:105760009081907C9960908310924B0310924C032F
:105770002CE0622F0E941430829FB001112430E08F
:1057800020E0AB01420F531FFA01EE0FFF1FE40FA1
:10579000F51FE75EFC4F908196FD16C02F5F3F4FCF
:1057A0002C30310571F781110FC01092800082E01A
:1057B000809381001092850010928400B19A8091AC
:1057C0006F00826080936F00E0914A038E2F90E01B
:1057D000FC01EE0FFF1FE80FF91FE75EFC4F808111
:1057E0008064808390E080E00E94311168EE73E075
:1057F00080E090E00E94D6140E940A2280ED95E19C
:105800000E94581C0E94372068EB7BE080E090E00B
:105810000E94D6140E942A2281E00E940F266093E3
:1058200063027093640280936502909366020E9403
:105830000A2280ED91E10E94581C0E94372068EEF8
:1058400073E080E090E00E94D6140E942A220E9419
:105850003C2268EB7BE080E090E00E94D6140E943E
:105860002A2280E00E940F2660935F0270936002FC
:1058700080936102909362020E94342268EE73E08A
:1058800080E090E00E94D6140E942A22C0E0D0E07E
:105890000E9408154B015C010E940815C09063022C
:1058A000D0906402E0906502F09066026819790970
:1058B0008A099B090E94BA2E28E33AEB42E254E49B
:1058C0000E94B52E87FFE0C180915F029091600237
:1058D000A0916102B0916202C816D906EA06FB06E1
:1058E00009F053C00E9408156B017C010E94081545
:1058F0002B013C0150E6C50E5AEED51EE11CF11CF1
:105900004C145D046E047F040CF03FC084E00E94E0
:10591000D812892BD1F10E9408152B013C010E945D
:105920000A2280ED99E10E94581C0E94372088EEDF
:1059300093E00E94971390E080E00E94311168EE9E
:1059400073E080E090E00E94D6140E940A220E9438
:10595000372085E00E942F1384EB90E00E943111E4
:1059600068EE73E080E090E00E94D61484E00E942C
:10597000D812892B29F60E940A2280ED9DE10E940F
:10598000581C0E9437200E94BE2184E00E94D81239
:10599000892B09F081CF0E943C2268EB7BE080E0FC
:1059A00090E00E94D6140E942A2280E00E940F26D6
:1059B00060935F0270936002809361029093620231
:1059C0000E94342268EE73E080E090E00E94D614DA
:1059D0000E942A2261CF8CE380936E0310925E02B4
:1059E00010925D0210927902109278020E946E1D50
:1059F00086E991E190935C0280935B0287E991E1F3
:105A000090935A02809359028091750387FD1EC0BE
:105A100061E00E945B1361E0809175030E940113B5
:105A200061E070E080E090E00E94D61460E0809138
:105A300075030E9401136AE070E080E090E00E942C
:105A4000D61461E0809175030E94011380916A036E
:105A500090916B03892B09F4E0C02091820330916F
:105A60008303409184035091850360E074E284EFE6
:105A700090E00E94AD2F20513109410951095695FE
:105A80004795379527952093B80064E08CEC9DE00E
:105A90000E94191F6091530361508DE493E00E94AE
:105AA000CE1F64E088EC9DE00E94191F80916F0377
:105AB00060E1813009F064E18DE493E00E94CE1F43
:105AC00064E084EC9DE00E94191F8FE880938A03B4
:105AD00080915103909152038038910509F0B6C02E
